:1000000014C1000040C100003EC100003CC100001E
:100010003AC1000038C1000036C1000034C1000000
:1000200032C1000030C100002EC100002CC1000010
:100030002AC1000028C1000026C1000024C1000020
:1000400022C1000064C400001EC100001CC10000E9
:100050001AC1000018C1000016C1000087C30000CB
:1000600012C1000010C100000EC100000CC1000050
:100070000AC1000008C1000006C1000004C1000060
:1000800019C4000000C10000FEC00000FCC0000058
:10009000FAC00000F8C00000F6C00000F4C0000084
:1000A000F2C00000F0C00000D8C30000ECC00000A7
:1000B000EAC00000E8C00000E6C00000A1C30000E4
:1000C000E2C00000E0C00000DEC00000DCC00000B4
:1000D000DAC00000D8C00000D6C00000D4C00000C4
:1000E000D2C0000089018C017B017F018501C30121
:1000F000900194019A019E01A201A801AC01B001F6
:10010000C301B601BA01BE01000020002300260091
:1001100029002C002F00320000010000030106011D
:10012000090100002100240027002A002D003000D2
:10013000330001010000040107010A010000220050
:10014000250028002B002E003100340002010000A1
:10015000050108010B010505050507050808080844
:10016000020202020A0A080804040404010101014F
:10017000010101010303030303030303040707074A
:100180000C0C0C0C0C0C0C0C0202020206060606EF
:10019000060606060B0B0B0B0B0B0B0B01021020BC
:1001A00020080810204010204080020102010804AD
:1001B0000201010204081020408080402010080441
:1001C000020180040201804020100804020108049A
:1001D00002010102040810204080010204081020DE
:1001E000408000000A0B02090C0D0E0807030401F1
:1001F00000000000000000000000000000000000FF
:1002000000000000000000000000000000001211CB
:1002100010000000000000000000000000000000CE
:100220000000000000000000350511241FBECFEFC4
:10023000D1E2DEBFCDBF00E00CBF12E0A0E0B2E033
:10024000E0E0FDE000E00BBF02C007900D92A43398
:10025000B107D9F723E0A4E3B2E001C01D92A337B0
:10026000B207E1F711E0C5E1D1E000E005C0219758
:100270000109802FFE0136D5C431D10780E008077F
:10028000B1F772D33BC5BCCECF92DF92EF92FF9213
:100290000F931F93CF93DF936C017A018B01C0E022
:1002A000D0E0CE15DF0589F0D8016D918D01D60122
:1002B000ED91FC910190F081E02DC6011995892BFB
:1002C00011F47E0102C02196ECCFC701DF91CF91DE
:1002D0001F910F91FF90EF90DF90CF90089590E0E5
:1002E000FC013197E231F10508F04DC08827EE5846
:1002F000FF4F8F4FF7C4809180008F7703C08091AC
:1003000080008F7D80938000089580918000877F9A
:10031000F9CF84B58F7702C084B58F7D84BD0895F1
:100320008091B0008F7703C08091B0008F7D809363
:10033000B0000895809190008F7707C08091900061
:100340008F7D03C080919000877F809390000895F7
:100350008091A0008F7707C08091A0008F7D03C09F
:100360008091A000877F8093A00008958091200154
:100370008F7707C0809120018F7D03C0809120017D
:10038000877F8093200108951F93CF93DF93282FB9
:1003900030E0F901EE51FE4F8491F901E456FE4F31
:1003A000D491F901EA5AFE4FC491CC23C1F0162F23
:1003B000811195DFEC2FF0E0EE0FFF1FE45CFE4FA4
:1003C000A591B4918FB7F894111105C09C91ED2FB0
:1003D000E095E92302C0EC91ED2BEC938FBFDF9108
:1003E000CF911F910895CF93DF9390E0FC01E456E5
:1003F000FE4F2491FC01EA5AFE4F8491882361F15B
:1004000090E0880F991FFC01EE5DFE4FC591D491DD
:10041000FC01E45CFE4FA591B491611109C09FB746
:10042000F8948881209582238883EC912E230BC039
:10043000623061F49FB7F8943881822F80958323CE
:100440008883EC912E2B2C939FBF06C08FB7F89416
:10045000E8812E2B28838FBFDF91CF910895CF9213
:10046000DF92EF92FF920F931F93CF93DF936C0174
:100470008B017A01EC01CA59DC4F888187FF04C0E7
:10048000FB011182108224C08CE08C9D90018D9D17
:10049000300D11248881A901480F511D87FD5A95FF
:1004A0008091650390E04817590794F48881A90169
:1004B000480F511D87FD5A95CA01FA01EE0FFF1F23
:1004C0008E0F9F1FFC01EB52FD4F808186FD19C0EE
:1004D00088818F5F88838CE08C9D90018D9D300D8D
:1004E00011248881A901480F511D87FD5A958091DB
:1004F000650390E048175907B4F488818C303CF1CB
:1005000012C08881280F311D87FD3A95F901EE0F41
:10051000FF1F2E0F3F1FF901EB52FD4F808160E05E
:100520008F7332DFD5CFF8018081918104968034BA
:100530009C4918F480E49CE904C0F8018081918111
:100540000496F701918380838FEF888344C0F8017C
:10055000408151818881B901680F711D87FD7A95AD
:10056000CB01FB01EE0FFF1F8E0F9F1FFC01EB5213
:10057000FD4F81819281840F951FF70191838083C4
:100580008881A901480F511D87FD5A95CA01FA01BA
:10059000EE0FFF1F8E0F9F1FFC01EB52FD4F80815E
:1005A00086FF19C08881280F311D87FD3A95F90112
:1005B000EE0FFF1F2E0F3F1FF901EB52FD4F808101
:1005C00061E08F73DF91CF911F910F91FF90EF90BA
:1005D000DF90CF90D9CEDF91CF911F910F91FF90F7
:1005E000EF90DF90CF900895CF93DF93EC0160E020
:1005F0008E81CADE61E08E81C7DE60E08E81C4DE5E
:100600008BE891E00197F1F7DF91CF910895CF92B8
:10061000DF92EF92FF920F931F93CF93DF937C01B2
:100620006C0187E0C80ED11CC0E0D0E0062F10E0BE
:10063000B8010C2E02C0759567950A94E2F76170B7
:10064000F60181916F01A0DE2196C430D10581F7BA
:10065000C701DF91CF911F910F91FF90EF90DF9035
:10066000CF90C2CFCF92DF92EF92FF920F931F9362
:10067000CF93DF93EC01F62E642F8C8185DE8D8184
:100680008F3F11F060E080DE8F850F2D10E084FF3A
:1006900023C06E0187E0C80ED11CE12CF12CB801FB
:1006A0000E2C02C0759567950A94E2F76170F60109
:1006B00081916F0169DEFFEFEF1AFF0A88E0E8160B
:1006C000F10469F7CE01DF91CF911F910F91FF9057
:1006D000EF90DF90CF9088CFB80184E07595679553
:1006E0008A95E1F7CE0193DF6F2DCE01DF91CF9197
:1006F0001F910F91FF90EF90DF90CF9088CF41E056
:10070000B1DF81E090E00895089580E090E00895E1
:10071000CF93DF9370E0FB01EE51FE4F8491FB011C
:10072000E456FE4FD491FB01EA5AFE4FC491CC230C
:1007300089F08111D4DDEC2FF0E0EE0FFF1FE85FB0
:10074000FE4FA591B491EC91ED2381E090E021F46E
:1007500080E002C080E090E0DF91CF910895862F85
:10076000642F12CE862F642F3ECEC4D21F920F92DA
:100770000FB60F9211242F933F938F939F93AF93B4
:10078000BF9380916F0390917003A0917103B0911A
:10079000720330916E0323E0230F2D3720F401966E
:1007A000A11DB11D05C026E8230F0296A11DB11D94
:1007B00020936E0380936F0390937003A093710353
:1007C000B093720380916A0390916B03A0916C03C4
:1007D000B0916D030196A11DB11D80936A039093A2
:1007E0006B03A0936C03B0936D03BF91AF919F9186
:1007F0008F913F912F910F900FBE0F901F901895E2
:100800001F920F920FB60F9211240BB60F922F93D7
:100810003F934F935F936F937F938F939F93AF9388
:10082000BF93EF93FF9348E251E064E271E080E010
:1008300090E015DEFF91EF91BF91AF919F918F9165
:100840007F916F915F914F913F912F910F900BBED0
:100850000F900FBE0F901F9018951F920F920FB61A
:100860000F9211240BB60F922F933F934F935F93E8
:100870006F937F938F939F93AF93BF93EF93FF9368
:1008800048EA50E064EA70E083E090E0E8DDFF9140
:10089000EF91BF91AF919F918F917F916F915F91F8
:1008A0004F913F912F910F900BBE0F900FBE0F9065
:1008B0001F9018951F920F920FB60F9211240BB62E
:1008C0000F922F933F934F935F936F937F938F93E9
:1008D0009F93AF93BF93EF93FF9348E950E064E990
:1008E00070E082E090E0BBDDFF91EF91BF91AF91AE
:1008F0009F918F917F916F915F914F913F912F9138
:100900000F900BBE0F900FBE0F901F9018951F9267
:100910000F920FB60F9211240BB60F922F933F93A5
:100920004F935F936F937F938F939F93AF93BF93F7
:10093000EF93FF9348E850E064E870E081E090E0D6
:100940008EDDFF91EF91BF91AF919F918F917F913C
:100950006F915F914F913F912F910F900BBE0F9030
:100960000FBE0F901F901895789484B5826084BD57
:1009700084B5816084BD85B5826085BD85B58160A3
:1009800085BD80916E00816080936E001092810021
:1009900080918100826080938100809181008160DC
:1009A000809381008091800081608093800080919D
:1009B000B10084608093B1008091B0008160809329
:1009C000B0008091910082608093910080919100AD
:1009D000816080939100809190008160809390006D
:1009E0008091A10082608093A1008091A10081602C
:1009F0008093A1008091A00081608093A0008091ED
:100A00002101826080932101809121018160809386
:100A100021018091200181608093200180917A00E2
:100A2000846080937A0080917A00826080937A005B
:100A300080917A00816080937A0080917A0080684A
:100A400080937A001092C1008091B100887F8093DA
:100A5000B1008091B10081608093B100C0E0D0E02E
:100A60002097F1F30E940000FBCFCF93DF93109209
:100A7000C0021092BF0286E292E09093BE02809381
:100A8000BD0286E18093C1028FEF8093C20288E1AC
:100A90008093C3028AE18093C4028CE18093C502F3
:100AA0008EE18093C60280E28093C7021092C80252
:100AB0001092C9021092CA021092CB021092CC027C
:100AC00081E08093D0021092D10280E48093D20220
:100AD00080E18093D30280E58093D40261E086E1D7
:100AE00082DC8091C2028F3F11F061E07CDC61E02A
:100AF0008091C30278DCC0E0D0E08091CC0284FD1C
:100B000003C084E090E002C088E090E0C817D907F5
:100B100044F4FE01E354FD4F61E0878164DC2196DB
:100B2000ECCF8BE39DE00197F1F760E08091C1028B
:100B30002BDC60E08091C30227DC8091C2028F3FF2
:100B400011F060E021DC6091CC0264FD1CC063E028
:100B50008DEB92E05CDDCBE4D6E4CE010197F1F7BA
:100B600063E08DEB92E053DD2197F1F763E08DEBCD
:100B700092E04DDD83E592E00197F1F762E08DEBC5
:100B800092E045DD1BC0606240E08DEB92E06ADDE3
:100B90008BE496E40197F1F76091CC02606240E04B
:100BA0008DEB92E05FDD83E592E00197F1F76091D4
:100BB000CC02606240E08DEB92E054DD6091CC02AB
:100BC000606240E08DEB92E04DDD84E08093CD02E9
:100BD00040E06CE08DEB92E045DD40E061E08DEBC4
:100BE00092E040DD8BE39FE10197F1F782E0809393
:100BF000CE0240E066E08DEB92E034DD809165034B
:100C00008033A0F491E0980F909365038093BA022B
:100C100090E0FC01EE0FFF1F8E0F9F1FFC01EB52B7
:100C2000FD4F88EB9BE09283818303C08FEF80931D
:100C3000BA0210924D02109251021092500210927C
:100C400052028CE192E090934C0280934B0280E040
:100C500090E0FC01E55BFD4F148E10A2178E11A2EF
:100C600006968C339105A9F784E092E09093AE024A
:100C70008093AD0280E092E09093B0028093AF0247
:100C800084E08093B1028093B20288E092E0909376
:100C9000AC028093AB028AE090E09093B402809320
:100CA000B30284EF91E09093B6028093B502109264
:100CB000B9021092B8021092A7021092A8021092E4
:100CC000A9021092AA021092B7028EE292E09093CB
:100CD00035028093340210924A0210923602DF915C
:100CE000CF910895EE0FFF1F881F8BBF0790F691DD
:100CF000E02D199481E090E0F89400C0F894FFCFC3
:100D0000121314150E0F101131323341343536429F
:100D1000373839432A30234400000000B203AF03C0
:100D20008803000000007F034401850384033133FE
:040D30003337000055
:00000001FF
